{
  "contractName": "Identity",
  "abi": [
    {
      "anonymous": false,
      "inputs": [
        {
          "indexed": true,
          "internalType": "address",
          "name": "userAddress",
          "type": "address"
        },
        {
          "indexed": false,
          "internalType": "string",
          "name": "name",
          "type": "string"
        },
        {
          "indexed": false,
          "internalType": "string",
          "name": "email",
          "type": "string"
        }
      ],
      "name": "IdentityCreated",
      "type": "event"
    },
    {
      "anonymous": false,
      "inputs": [
        {
          "indexed": true,
          "internalType": "address",
          "name": "userAddress",
          "type": "address"
        }
      ],
      "name": "IdentityVerified",
      "type": "event"
    },
    {
      "inputs": [
        {
          "internalType": "address",
          "name": "",
          "type": "address"
        }
      ],
      "name": "users",
      "outputs": [
        {
          "internalType": "string",
          "name": "name",
          "type": "string"
        },
        {
          "internalType": "string",
          "name": "email",
          "type": "string"
        },
        {
          "internalType": "string",
          "name": "publicKey",
          "type": "string"
        },
        {
          "internalType": "bool",
          "name": "verified",
          "type": "bool"
        }
      ],
      "stateMutability": "view",
      "type": "function"
    },
    {
      "inputs": [
        {
          "internalType": "string",
          "name": "_name",
          "type": "string"
        },
        {
          "internalType": "string",
          "name": "_email",
          "type": "string"
        },
        {
          "internalType": "string",
          "name": "_publicKey",
          "type": "string"
        }
      ],
      "name": "createIdentity",
      "outputs": [],
      "stateMutability": "nonpayable",
      "type": "function"
    },
    {
      "inputs": [
        {
          "internalType": "address",
          "name": "_userAddress",
          "type": "address"
        }
      ],
      "name": "verifyIdentity",
      "outputs": [],
      "stateMutability": "nonpayable",
      "type": "function"
    },
    {
      "inputs": [
        {
          "internalType": "address",
          "name": "_userAddress",
          "type": "address"
        }
      ],
      "name": "getIdentity",
      "outputs": [
        {
          "internalType": "string",
          "name": "",
          "type": "string"
        },
        {
          "internalType": "string",
          "name": "",
          "type": "string"
        },
        {
          "internalType": "string",
          "name": "",
          "type": "string"
        },
        {
          "internalType": "bool",
          "name": "",
          "type": "bool"
        }
      ],
      "stateMutability": "view",
      "type": "function"
    }
  ],
  "bytecode": "0x608060405234801561000f575f80fd5b50610e378061001d5f395ff3fe608060405234801561000f575f80fd5b506004361061004a575f3560e01c80632fea7b811461004e578063351c4a4614610081578063a87430ba1461009d578063b5b90fd9146100d0575b5f80fd5b6100686004803603810190610063919061079b565b6100ec565b604051610078949392919061086a565b60405180910390f35b61009b600480360381019061009691906109ee565b610328565b005b6100b760048036038101906100b2919061079b565b61043e565b6040516100c7949392919061086a565b60405180910390f35b6100ea60048036038101906100e5919061079b565b610607565b005b60608060605f805f808773ffffffffffffffffffffffffffffffffffffffff1673ffffffffffffffffffffffffffffffffffffffff1681526020019081526020015f206040518060800160405290815f8201805461014990610abf565b80601f016020809104026020016040519081016040528092919081815260200182805461017590610abf565b80156101c05780601f10610197576101008083540402835291602001916101c0565b820191905f5260205f20905b8154815290600101906020018083116101a357829003601f168201915b505050505081526020016001820180546101d990610abf565b80601f016020809104026020016040519081016040528092919081815260200182805461020590610abf565b80156102505780601f1061022757610100808354040283529160200191610250565b820191905f5260205f20905b81548152906001019060200180831161023357829003601f168201915b5050505050815260200160028201805461026990610abf565b80601f016020809104026020016040519081016040528092919081815260200182805461029590610abf565b80156102e05780601f106102b7576101008083540402835291602001916102e0565b820191905f5260205f20905b8154815290600101906020018083116102c357829003601f168201915b50505050508152602001600382015f9054906101000a900460ff1615151515815250509050805f01518160200151826040015183606001519450945094509450509193509193565b60405180608001604052808481526020018381526020018281526020015f15158152505f803373ffffffffffffffffffffffffffffffffffffffff1673ffffffffffffffffffffffffffffffffffffffff1681526020019081526020015f205f820151815f01908161039a9190610c95565b5060208201518160010190816103b09190610c95565b5060408201518160020190816103c69190610c95565b506060820151816003015f6101000a81548160ff0219169083151502179055509050503373ffffffffffffffffffffffffffffffffffffffff167f6b0c3bc6b3d317d2cf8f07426c82d9decd9530eb7b70cd61cb031c35b0a5353a8484604051610431929190610d64565b60405180910390a2505050565b5f602052805f5260405f205f91509050805f01805461045c90610abf565b80601f016020809104026020016040519081016040528092919081815260200182805461048890610abf565b80156104d35780601f106104aa576101008083540402835291602001916104d3565b820191905f5260205f20905b8154815290600101906020018083116104b657829003601f168201915b5050505050908060010180546104e890610abf565b80601f016020809104026020016040519081016040528092919081815260200182805461051490610abf565b801561055f5780601f106105365761010080835404028352916020019161055f565b820191905f5260205f20905b81548152906001019060200180831161054257829003601f168201915b50505050509080600201805461057490610abf565b80601f01602080910402602001604051908101604052809291908181526020018280546105a090610abf565b80156105eb5780601f106105c2576101008083540402835291602001916105eb565b820191905f5260205f20905b8154815290600101906020018083116105ce57829003601f168201915b505050505090806003015f9054906101000a900460ff16905084565b5f805f8373ffffffffffffffffffffffffffffffffffffffff1673ffffffffffffffffffffffffffffffffffffffff1681526020019081526020015f205f01805461065190610abf565b905011610693576040517f08c379a000000000000000000000000000000000000000000000000000000000815260040161068a90610de3565b60405180910390fd5b60015f808373ffffffffffffffffffffffffffffffffffffffff1673ffffffffffffffffffffffffffffffffffffffff1681526020019081526020015f206003015f6101000a81548160ff0219169083151502179055508073ffffffffffffffffffffffffffffffffffffffff167f02f93fdaafad8edad1ca75101b1fbda62e64ab9afc26d0ea801ccf6ef02c09ab60405160405180910390a250565b5f604051905090565b5f80fd5b5f80fd5b5f73ffffffffffffffffffffffffffffffffffffffff82169050919050565b5f61076a82610741565b9050919050565b61077a81610760565b8114610784575f80fd5b50565b5f8135905061079581610771565b92915050565b5f602082840312156107b0576107af610739565b5b5f6107bd84828501610787565b91505092915050565b5f81519050919050565b5f82825260208201905092915050565b5f5b838110156107fd5780820151818401526020810190506107e2565b5f8484015250505050565b5f601f19601f8301169050919050565b5f610822826107c6565b61082c81856107d0565b935061083c8185602086016107e0565b61084581610808565b840191505092915050565b5f8115159050919050565b61086481610850565b82525050565b5f6080820190508181035f8301526108828187610818565b905081810360208301526108968186610818565b905081810360408301526108aa8185610818565b90506108b9606083018461085b565b95945050505050565b5f80fd5b5f80fd5b7f4e487b71000000000000000000000000000000000000000000000000000000005f52604160045260245ffd5b61090082610808565b810181811067ffffffffffffffff8211171561091f5761091e6108ca565b5b80604052505050565b5f610931610730565b905061093d82826108f7565b919050565b5f67ffffffffffffffff82111561095c5761095b6108ca565b5b61096582610808565b9050602081019050919050565b828183375f83830152505050565b5f61099261098d84610942565b610928565b9050828152602081018484840111156109ae576109ad6108c6565b5b6109b9848285610972565b509392505050565b5f82601f8301126109d5576109d46108c2565b5b81356109e5848260208601610980565b91505092915050565b5f805f60608486031215610a0557610a04610739565b5b5f84013567ffffffffffffffff811115610a2257610a2161073d565b5b610a2e868287016109c1565b935050602084013567ffffffffffffffff811115610a4f57610a4e61073d565b5b610a5b868287016109c1565b925050604084013567ffffffffffffffff811115610a7c57610a7b61073d565b5b610a88868287016109c1565b9150509250925092565b7f4e487b71000000000000000000000000000000000000000000000000000000005f52602260045260245ffd5b5f6002820490506001821680610ad657607f821691505b602082108103610ae957610ae8610a92565b5b50919050565b5f819050815f5260205f209050919050565b5f6020601f8301049050919050565b5f82821b905092915050565b5f60088302610b4b7fffffffffffffffffffffffffffffffffffffffffffffffffffffffffffffffff82610b10565b610b558683610b10565b95508019841693508086168417925050509392505050565b5f819050919050565b5f819050919050565b5f610b99610b94610b8f84610b6d565b610b76565b610b6d565b9050919050565b5f819050919050565b610bb283610b7f565b610bc6610bbe82610ba0565b848454610b1c565b825550505050565b5f90565b610bda610bce565b610be5818484610ba9565b505050565b5b81811015610c0857610bfd5f82610bd2565b600181019050610beb565b5050565b601f821115610c4d57610c1e81610aef565b610c2784610b01565b81016020851015610c36578190505b610c4a610c4285610b01565b830182610bea565b50505b505050565b5f82821c905092915050565b5f610c6d5f1984600802610c52565b1980831691505092915050565b5f610c858383610c5e565b9150826002028217905092915050565b610c9e826107c6565b67ffffffffffffffff811115610cb757610cb66108ca565b5b610cc18254610abf565b610ccc828285610c0c565b5f60209050601f831160018114610cfd575f8415610ceb578287015190505b610cf58582610c7a565b865550610d5c565b601f198416610d0b86610aef565b5f5b82811015610d3257848901518255600182019150602085019450602081019050610d0d565b86831015610d4f5784890151610d4b601f891682610c5e565b8355505b6001600288020188555050505b505050505050565b5f6040820190508181035f830152610d7c8185610818565b90508181036020830152610d908184610818565b90509392505050565b7f5573657220646f6573206e6f742065786973742e0000000000000000000000005f82015250565b5f610dcd6014836107d0565b9150610dd882610d99565b602082019050919050565b5f6020820190508181035f830152610dfa81610dc1565b905091905056fea2646970667358221220b95713160b8cc800dca9c02da7e4f23b37143c60685fac6bd69bd7191c86a8c464736f6c63430008150033",
  "immutableReferences": {},
  "source": "// SPDX-License-Identifier: MIT\r\npragma solidity ^0.8.0;\r\n\r\ncontract Identity {\r\n    struct User {\r\n        string name;\r\n        string email;\r\n        string publicKey;\r\n        bool verified;\r\n    }\r\n\r\n    mapping(address => User) public users;\r\n\r\n    event IdentityCreated(address indexed userAddress, string name, string email);\r\n    event IdentityVerified(address indexed userAddress);\r\n\r\n    function createIdentity(string memory _name, string memory _email, string memory _publicKey) public {\r\n        users[msg.sender] = User(_name, _email, _publicKey, false);\r\n        emit IdentityCreated(msg.sender, _name, _email);\r\n    }\r\n\r\n    function verifyIdentity(address _userAddress) public {\r\n        require(bytes(users[_userAddress].name).length > 0, \"User does not exist.\");\r\n        users[_userAddress].verified = true;\r\n        emit IdentityVerified(_userAddress);\r\n    }\r\n\r\n    function getIdentity(address _userAddress) public view returns (string memory, string memory, string memory, bool) {\r\n        User memory user = users[_userAddress];\r\n        return (user.name, user.email, user.publicKey, user.verified);\r\n    }\r\n}\r\n",
  "sourcePath": "C:\\Windows\\System32\\decentralized-id\\contracts\\contracts\\Identity.sol",
  "compiler": {
    "name": "solc",
    "version": "0.8.21+commit.d9974bed.Emscripten.clang"
  },
  "schemaVersion": "3.4.16",
  "updatedAt": "2024-09-16T21:10:01.369Z",
  "devdoc": {
    "kind": "dev",
    "methods": {},
    "version": 1
  },
  "userdoc": {
    "kind": "user",
    "methods": {},
    "version": 1
  }
}